{
  "address": "0x2A76641f67E7B8CD4081a94a2505EFE20d2c22f3",
  "abi": [
    {
      "anonymous": false,
      "inputs": [
        {
          "indexed": true,
          "internalType": "address",
          "name": "userAddress",
          "type": "address"
        },
        {
          "indexed": false,
          "internalType": "string",
          "name": "username",
          "type": "string"
        }
      ],
      "name": "UserCreated",
      "type": "event"
    },
    {
      "inputs": [
        {
          "internalType": "string",
          "name": "username",
          "type": "string"
        },
        {
          "internalType": "string",
          "name": "profilePicURL",
          "type": "string"
        },
        {
          "internalType": "string",
          "name": "socials",
          "type": "string"
        }
      ],
      "name": "createUser",
      "outputs": [],
      "stateMutability": "nonpayable",
      "type": "function"
    },
    {
      "inputs": [
        {
          "internalType": "address",
          "name": "userAddress",
          "type": "address"
        }
      ],
      "name": "getUser",
      "outputs": [
        {
          "internalType": "string",
          "name": "",
          "type": "string"
        },
        {
          "internalType": "address",
          "name": "",
          "type": "address"
        },
        {
          "internalType": "string",
          "name": "",
          "type": "string"
        },
        {
          "internalType": "string",
          "name": "",
          "type": "string"
        }
      ],
      "stateMutability": "view",
      "type": "function"
    },
    {
      "inputs": [
        {
          "internalType": "string",
          "name": "username",
          "type": "string"
        }
      ],
      "name": "getUserByUsername",
      "outputs": [
        {
          "internalType": "string",
          "name": "",
          "type": "string"
        },
        {
          "internalType": "address",
          "name": "",
          "type": "address"
        },
        {
          "internalType": "string",
          "name": "",
          "type": "string"
        },
        {
          "internalType": "string",
          "name": "",
          "type": "string"
        }
      ],
      "stateMutability": "view",
      "type": "function"
    },
    {
      "inputs": [
        {
          "internalType": "address",
          "name": "",
          "type": "address"
        }
      ],
      "name": "hasAccount",
      "outputs": [
        {
          "internalType": "bool",
          "name": "",
          "type": "bool"
        }
      ],
      "stateMutability": "view",
      "type": "function"
    },
    {
      "inputs": [
        {
          "internalType": "string",
          "name": "_profilePicURL",
          "type": "string"
        }
      ],
      "name": "updateProfilePicURL",
      "outputs": [],
      "stateMutability": "nonpayable",
      "type": "function"
    },
    {
      "inputs": [
        {
          "internalType": "string",
          "name": "_socials",
          "type": "string"
        }
      ],
      "name": "updateSocials",
      "outputs": [],
      "stateMutability": "nonpayable",
      "type": "function"
    },
    {
      "inputs": [
        {
          "internalType": "string",
          "name": "",
          "type": "string"
        }
      ],
      "name": "usernameToAddress",
      "outputs": [
        {
          "internalType": "address",
          "name": "",
          "type": "address"
        }
      ],
      "stateMutability": "view",
      "type": "function"
    },
    {
      "inputs": [
        {
          "internalType": "address",
          "name": "",
          "type": "address"
        }
      ],
      "name": "users",
      "outputs": [
        {
          "internalType": "string",
          "name": "username",
          "type": "string"
        },
        {
          "internalType": "address",
          "name": "userAddress",
          "type": "address"
        },
        {
          "internalType": "string",
          "name": "profilePicURL",
          "type": "string"
        },
        {
          "internalType": "string",
          "name": "socials",
          "type": "string"
        }
      ],
      "stateMutability": "view",
      "type": "function"
    }
  ],
  "transactionHash": "0x94c86ea1df176035bb2a787f8fb1e340638202ddc65661ca08831c78a7407751",
  "args": [],
  "numDeployments": 1,
  "solcInputHash": "78c9c7ea8eefa3e76d210204d81d67b4",
  "bytecode": "0x608060405234801561001057600080fd5b50610e5b806100206000396000f3fe608060405234801561001057600080fd5b50600436106100885760003560e01c80639f42af631161005b5780639f42af63146100f4578063a87430ba14610107578063c8e40fbf1461011a578063f825f1431461014d57600080fd5b806317f8f9ca1461008d57806359ae069b146100a2578063675843f8146100b55780636f77926b146100c8575b600080fd5b6100a061009b366004610b15565b610199565b005b6100a06100b0366004610b52565b6101d2565b6100a06100c3366004610b15565b6103f3565b6100db6100d6366004610bda565b610428565b6040516100eb9493929190610c5a565b60405180910390f35b6100db610102366004610b15565b610652565b6100db610115366004610bda565b6108a3565b61013d610128366004610bda565b60006020819052908152604090205460ff1681565b60405190151581526020016100eb565b61018161015b366004610b15565b80516020818301810180516001825292820191909301209152546001600160a01b031681565b6040516001600160a01b0390911681526020016100eb565b3360009081526020819052604090205460ff16156101cf573360009081526002602052604090206003016101cd8282610d36565b505b50565b33600090815260208190526040902054839060ff161561024c5760405162461bcd60e51b815260206004820152602a60248201527f416e206163636f756e7420616c72656164792065786973747320666f722074686044820152696973206164647265737360b01b60648201526084015b60405180910390fd5b60006001600160a01b03166001826040516102679190610df6565b908152604051908190036020019020546001600160a01b0316146102c65760405162461bcd60e51b81526020600482015260166024820152752ab9b2b93730b6b29030b63932b0b23c903a30b5b2b760511b6044820152606401610243565b604080516080810182528581523360208083018290528284018790526060830186905260009182526002905291909120815181906103049082610d36565b5060208201516001820180546001600160a01b0319166001600160a01b039092169190911790556040820151600282019061033f9082610d36565b50606082015160038201906103549082610d36565b50503360008181526020819052604090819020805460ff19166001908117909155905191925090610386908790610df6565b90815260405190819003602001812080546001600160a01b03939093166001600160a01b03199093169290921790915533907f9954bce02f72fbdef0fa668ac6f42e434b5829615dac2fb22448054d2359d4f6906103e5908790610e12565b60405180910390a250505050565b3360009081526020819052604090205460ff16156101cf57336000908152600260208190526040909120016101cd8282610d36565b60606000606080600060026000876001600160a01b03166001600160a01b0316815260200190815260200160002060405180608001604052908160008201805461047190610cad565b80601f016020809104026020016040519081016040528092919081815260200182805461049d90610cad565b80156104ea5780601f106104bf576101008083540402835291602001916104ea565b820191906000526020600020905b8154815290600101906020018083116104cd57829003601f168201915b505050918352505060018201546001600160a01b0316602082015260028201805460409092019161051a90610cad565b80601f016020809104026020016040519081016040528092919081815260200182805461054690610cad565b80156105935780601f1061056857610100808354040283529160200191610593565b820191906000526020600020905b81548152906001019060200180831161057657829003601f168201915b505050505081526020016003820180546105ac90610cad565b80601f01602080910402602001604051908101604052809291908181526020018280546105d890610cad565b80156106255780601f106105fa57610100808354040283529160200191610625565b820191906000526020600020905b81548152906001019060200180831161060857829003601f168201915b505050919092525050815160208301516040840151606090940151919a9099509297509550909350505050565b60606000606080600060018660405161066b9190610df6565b908152604051908190036020019020546001600160a01b03169050806106c65760405162461bcd60e51b815260206004820152601060248201526f27379032bc34b9ba34b733903ab9b2b960811b6044820152606401610243565b6001600160a01b038116600090815260026020819052604090912080549091839190830190600384019084906106fb90610cad565b80601f016020809104026020016040519081016040528092919081815260200182805461072790610cad565b80156107745780601f1061074957610100808354040283529160200191610774565b820191906000526020600020905b81548152906001019060200180831161075757829003601f168201915b5050505050935081805461078790610cad565b80601f01602080910402602001604051908101604052809291908181526020018280546107b390610cad565b80156108005780601f106107d557610100808354040283529160200191610800565b820191906000526020600020905b8154815290600101906020018083116107e357829003601f168201915b5050505050915080805461081390610cad565b80601f016020809104026020016040519081016040528092919081815260200182805461083f90610cad565b801561088c5780601f106108615761010080835404028352916020019161088c565b820191906000526020600020905b81548152906001019060200180831161086f57829003601f168201915b505050505090509450945094509450509193509193565b6002602052600090815260409020805481906108be90610cad565b80601f01602080910402602001604051908101604052809291908181526020018280546108ea90610cad565b80156109375780601f1061090c57610100808354040283529160200191610937565b820191906000526020600020905b81548152906001019060200180831161091a57829003601f168201915b505050600184015460028501805494956001600160a01b0390921694919350915061096190610cad565b80601f016020809104026020016040519081016040528092919081815260200182805461098d90610cad565b80156109da5780601f106109af576101008083540402835291602001916109da565b820191906000526020600020905b8154815290600101906020018083116109bd57829003601f168201915b5050505050908060030180546109ef90610cad565b80601f0160208091040260200160405190810160405280929190818152602001828054610a1b90610cad565b8015610a685780601f10610a3d57610100808354040283529160200191610a68565b820191906000526020600020905b815481529060010190602001808311610a4b57829003601f168201915b5050505050905084565b634e487b7160e01b600052604160045260246000fd5b600082601f830112610a9957600080fd5b813567ffffffffffffffff80821115610ab457610ab4610a72565b604051601f8301601f19908116603f01168101908282118183101715610adc57610adc610a72565b81604052838152866020858801011115610af557600080fd5b836020870160208301376000602085830101528094505050505092915050565b600060208284031215610b2757600080fd5b813567ffffffffffffffff811115610b3e57600080fd5b610b4a84828501610a88565b949350505050565b600080600060608486031215610b6757600080fd5b833567ffffffffffffffff80821115610b7f57600080fd5b610b8b87838801610a88565b94506020860135915080821115610ba157600080fd5b610bad87838801610a88565b93506040860135915080821115610bc357600080fd5b50610bd086828701610a88565b9150509250925092565b600060208284031215610bec57600080fd5b81356001600160a01b0381168114610c0357600080fd5b9392505050565b60005b83811015610c25578181015183820152602001610c0d565b50506000910152565b60008151808452610c46816020860160208601610c0a565b601f01601f19169290920160200192915050565b608081526000610c6d6080830187610c2e565b6001600160a01b03861660208401528281036040840152610c8e8186610c2e565b90508281036060840152610ca28185610c2e565b979650505050505050565b600181811c90821680610cc157607f821691505b602082108103610ce157634e487b7160e01b600052602260045260246000fd5b50919050565b601f821115610d3157600081815260208120601f850160051c81016020861015610d0e5750805b601f850160051c820191505b81811015610d2d57828155600101610d1a565b5050505b505050565b815167ffffffffffffffff811115610d5057610d50610a72565b610d6481610d5e8454610cad565b84610ce7565b602080601f831160018114610d995760008415610d815750858301515b600019600386901b1c1916600185901b178555610d2d565b600085815260208120601f198616915b82811015610dc857888601518255948401946001909101908401610da9565b5085821015610de65787850151600019600388901b60f8161c191681555b5050505050600190811b01905550565b60008251610e08818460208701610c0a565b9190910192915050565b602081526000610c036020830184610c2e56fea26469706673582212201327d7afc3257d0e6fe4bf929dc91479a4f86850aaabd5b22e413acffebbd59664736f6c63430008140033",
  "devdoc": {
    "kind": "dev",
    "methods": {},
    "version": 1
  },
  "userdoc": {
    "kind": "user",
    "methods": {},
    "version": 1
  },
  "storageLayout": {
    "storage": [
      {
        "astId": 5,
        "contract": "contracts/UserAccountManager.sol:UserAccountManager",
        "label": "hasAccount",
        "offset": 0,
        "slot": "0",
        "type": "t_mapping(t_address,t_bool)"
      },
      {
        "astId": 9,
        "contract": "contracts/UserAccountManager.sol:UserAccountManager",
        "label": "usernameToAddress",
        "offset": 0,
        "slot": "1",
        "type": "t_mapping(t_string_memory_ptr,t_address)"
      },
      {
        "astId": 23,
        "contract": "contracts/UserAccountManager.sol:UserAccountManager",
        "label": "users",
        "offset": 0,
        "slot": "2",
        "type": "t_mapping(t_address,t_struct(User)18_storage)"
      }
    ],
    "types": {
      "t_address": {
        "encoding": "inplace",
        "label": "address",
        "numberOfBytes": "20"
      },
      "t_bool": {
        "encoding": "inplace",
        "label": "bool",
        "numberOfBytes": "1"
      },
      "t_mapping(t_address,t_bool)": {
        "encoding": "mapping",
        "key": "t_address",
        "label": "mapping(address => bool)",
        "numberOfBytes": "32",
        "value": "t_bool"
      },
      "t_mapping(t_address,t_struct(User)18_storage)": {
        "encoding": "mapping",
        "key": "t_address",
        "label": "mapping(address => struct UserAccountManager.User)",
        "numberOfBytes": "32",
        "value": "t_struct(User)18_storage"
      },
      "t_mapping(t_string_memory_ptr,t_address)": {
        "encoding": "mapping",
        "key": "t_string_memory_ptr",
        "label": "mapping(string => address)",
        "numberOfBytes": "32",
        "value": "t_address"
      },
      "t_string_memory_ptr": {
        "encoding": "bytes",
        "label": "string",
        "numberOfBytes": "32"
      },
      "t_string_storage": {
        "encoding": "bytes",
        "label": "string",
        "numberOfBytes": "32"
      },
      "t_struct(User)18_storage": {
        "encoding": "inplace",
        "label": "struct UserAccountManager.User",
        "members": [
          {
            "astId": 11,
            "contract": "contracts/UserAccountManager.sol:UserAccountManager",
            "label": "username",
            "offset": 0,
            "slot": "0",
            "type": "t_string_storage"
          },
          {
            "astId": 13,
            "contract": "contracts/UserAccountManager.sol:UserAccountManager",
            "label": "userAddress",
            "offset": 0,
            "slot": "1",
            "type": "t_address"
          },
          {
            "astId": 15,
            "contract": "contracts/UserAccountManager.sol:UserAccountManager",
            "label": "profilePicURL",
            "offset": 0,
            "slot": "2",
            "type": "t_string_storage"
          },
          {
            "astId": 17,
            "contract": "contracts/UserAccountManager.sol:UserAccountManager",
            "label": "socials",
            "offset": 0,
            "slot": "3",
            "type": "t_string_storage"
          }
        ],
        "numberOfBytes": "128"
      }
    }
  }
}