{
  "address": "0x2A76641f67E7B8CD4081a94a2505EFE20d2c22f3",
  "abi": [
    {
      "inputs": [
        {
          "internalType": "contract IDatasetRegistry",
          "name": "_registry",
          "type": "address"
        }
      ],
      "stateMutability": "nonpayable",
      "type": "constructor"
    },
    {
      "inputs": [],
      "name": "ECDSAInvalidSignature",
      "type": "error"
    },
    {
      "inputs": [
        {
          "internalType": "uint256",
          "name": "length",
          "type": "uint256"
        }
      ],
      "name": "ECDSAInvalidSignatureLength",
      "type": "error"
    },
    {
      "inputs": [
        {
          "internalType": "bytes32",
          "name": "s",
          "type": "bytes32"
        }
      ],
      "name": "ECDSAInvalidSignatureS",
      "type": "error"
    },
    {
      "anonymous": false,
      "inputs": [
        {
          "indexed": true,
          "internalType": "contract IDataset",
          "name": "dataset",
          "type": "address"
        },
        {
          "indexed": false,
          "internalType": "string",
          "name": "schema",
          "type": "string"
        }
      ],
      "name": "DatasetSchema",
      "type": "event"
    },
    {
      "anonymous": false,
      "inputs": [
        {
          "indexed": false,
          "internalType": "address",
          "name": "userAddress",
          "type": "address"
        },
        {
          "indexed": false,
          "internalType": "address",
          "name": "relayerAddress",
          "type": "address"
        },
        {
          "indexed": false,
          "internalType": "bytes",
          "name": "functionSignature",
          "type": "bytes"
        }
      ],
      "name": "MetaTransactionExecuted",
      "type": "event"
    },
    {
      "inputs": [
        {
          "internalType": "address",
          "name": "_datasetOwner",
          "type": "address"
        },
        {
          "internalType": "string",
          "name": "_datasetName",
          "type": "string"
        },
        {
          "internalType": "string",
          "name": "_datasetSchema",
          "type": "string"
        },
        {
          "internalType": "bytes",
          "name": "_datasetMultiaddr",
          "type": "bytes"
        },
        {
          "internalType": "bytes32",
          "name": "_datasetChecksum",
          "type": "bytes32"
        }
      ],
      "name": "createDatasetWithSchema",
      "outputs": [
        {
          "internalType": "contract IDataset",
          "name": "",
          "type": "address"
        }
      ],
      "stateMutability": "nonpayable",
      "type": "function"
    },
    {
      "inputs": [
        {
          "internalType": "address",
          "name": "userAddress",
          "type": "address"
        },
        {
          "internalType": "bytes",
          "name": "functionSignature",
          "type": "bytes"
        },
        {
          "internalType": "bytes32",
          "name": "sigR",
          "type": "bytes32"
        },
        {
          "internalType": "bytes32",
          "name": "sigS",
          "type": "bytes32"
        },
        {
          "internalType": "uint8",
          "name": "sigV",
          "type": "uint8"
        }
      ],
      "name": "executeMetaTransaction",
      "outputs": [
        {
          "internalType": "bytes",
          "name": "",
          "type": "bytes"
        }
      ],
      "stateMutability": "nonpayable",
      "type": "function"
    },
    {
      "inputs": [
        {
          "internalType": "address",
          "name": "",
          "type": "address"
        }
      ],
      "name": "nonces",
      "outputs": [
        {
          "internalType": "uint256",
          "name": "",
          "type": "uint256"
        }
      ],
      "stateMutability": "view",
      "type": "function"
    },
    {
      "inputs": [],
      "name": "registry",
      "outputs": [
        {
          "internalType": "contract IDatasetRegistry",
          "name": "",
          "type": "address"
        }
      ],
      "stateMutability": "view",
      "type": "function"
    }
  ],
  "transactionHash": "0xf784fd64973d2cfd81a0e4fccc8aa37256b7f4ec6fe644ede1ab79475fc84ca0",
  "args": [
    "0x799daa22654128d0c64d5b79eac9283008158730"
  ],
  "numDeployments": 1,
  "solcInputHash": "f2c74a2d240f2454cb962b3944231918",
  "bytecode": "0x60a060405234801561001057600080fd5b50604051610c9b380380610c9b83398101604081905261002f916100f0565b6040518060400160405280600d81526020016c2230ba30a83937ba32b1ba37b960991b815250604051806040016040528060018152602001603160f81b81525046604051806080016040528060528152602001610c496052913980516020918201208451858301208451858401206040805194850193909352918301526060820152608081018290523060a082015260c00160408051601f1981840301815291905280516020909101206001555050506001600160a01b0316608052610120565b60006020828403121561010257600080fd5b81516001600160a01b038116811461011957600080fd5b9392505050565b608051610b086101416000396000818160aa01526102d30152610b086000f3fe608060405234801561001057600080fd5b506004361061004c5760003560e01c80630c53c51c14610051578063167fbf5f1461007a5780637b103999146100a55780637ecebe00146100cc575b600080fd5b61006461005f3660046106aa565b6100fa565b60405161007191906107e2565b60405180910390f35b61008d610088366004610845565b6102ce565b6040516001600160a01b039091168152602001610071565b61008d7f000000000000000000000000000000000000000000000000000000000000000081565b6100ec6100da3660046108f9565b60006020819052908152604090205481565b604051908152602001610071565b60408051606081810183526001600160a01b038816600081815260208181529085902054845283015291810186905261013687828787876103bc565b6101915760405162461bcd60e51b815260206004820152602160248201527f5369676e657220616e64207369676e617475726520646f206e6f74206d6174636044820152600d60fb1b60648201526084015b60405180910390fd5b6001600160a01b03871660009081526020819052604081208054600192906101ba908490610916565b9091555050604051600090819030906101d9908a908c9060200161093d565b60408051601f19818403018152908290526101f391610974565b6000604051808303816000865af19150503d8060008114610230576040519150601f19603f3d011682016040523d82523d6000602084013e610235565b606091505b5091509150816102875760405162461bcd60e51b815260206004820152601c60248201527f46756e6374696f6e2063616c6c206e6f74207375636365737366756c000000006044820152606401610188565b7f5845892132946850460bff5a0083f71031bc5bf9aadcd40f1de79423eac9b10b89338a6040516102ba93929190610990565b60405180910390a198975050505050505050565b6000807f00000000000000000000000000000000000000000000000000000000000000006001600160a01b0316633354bcdb8b8b8b8989896040518763ffffffff1660e01b8152600401610327969594939291906109ee565b6020604051808303816000875af1158015610346573d6000803e3d6000fd5b505050506040513d601f19601f8201168201806040525081019061036a9190610a3a565b9050806001600160a01b03167f37b19b8900a9b045473748167f459fa16828f33c13d71473bca4b5e52e5f4d5d88886040516103a7929190610a57565b60405180910390a29998505050505050505050565b6000806103c886610404565b905060006103d582610481565b90506103e3818588886104ac565b6001600160a01b0316886001600160a01b0316149250505095945050505050565b6000604051806080016040528060498152602001610a8a6049913980516020918201208351848301516040808701518051908601209051610464950193845260208401929092526001600160a01b03166040830152606082015260800190565b604051602081830303815290604052805190602001209050919050565b60015460405161190160f01b6020820152602281019190915260428101829052600090606201610464565b6000806000806104be888888886104da565b9250925092506104ce82826105a9565b50909695505050505050565b600080807f7fffffffffffffffffffffffffffffff5d576e7357a4501ddfe92f46681b20a0841115610515575060009150600390508261059f565b604080516000808252602082018084528a905260ff891692820192909252606081018790526080810186905260019060a0016020604051602081039080840390855afa158015610569573d6000803e3d6000fd5b5050604051601f1901519150506001600160a01b0381166105955750600092506001915082905061059f565b9250600091508190505b9450945094915050565b60008260038111156105bd576105bd610a73565b036105c6575050565b60018260038111156105da576105da610a73565b036105f85760405163f645eedf60e01b815260040160405180910390fd5b600282600381111561060c5761060c610a73565b0361062d5760405163fce698f760e01b815260048101829052602401610188565b600382600381111561064157610641610a73565b03610662576040516335e2f38360e21b815260048101829052602401610188565b5050565b6001600160a01b038116811461067b57600080fd5b50565b634e487b7160e01b600052604160045260246000fd5b803560ff811681146106a557600080fd5b919050565b600080600080600060a086880312156106c257600080fd5b85356106cd81610666565b9450602086013567ffffffffffffffff808211156106ea57600080fd5b818801915088601f8301126106fe57600080fd5b8135818111156107105761071061067e565b604051601f8201601f19908116603f011681019083821181831017156107385761073861067e565b816040528281528b602084870101111561075157600080fd5b826020860160208301376000602084830101528098505050505050604086013592506060860135915061078660808701610694565b90509295509295909350565b60005b838110156107ad578181015183820152602001610795565b50506000910152565b600081518084526107ce816020860160208601610792565b601f01601f19169290920160200192915050565b6020815260006107f560208301846107b6565b9392505050565b60008083601f84011261080e57600080fd5b50813567ffffffffffffffff81111561082657600080fd5b60208301915083602082850101111561083e57600080fd5b9250929050565b60008060008060008060008060a0898b03121561086157600080fd5b883561086c81610666565b9750602089013567ffffffffffffffff8082111561088957600080fd5b6108958c838d016107fc565b909950975060408b01359150808211156108ae57600080fd5b6108ba8c838d016107fc565b909750955060608b01359150808211156108d357600080fd5b506108e08b828c016107fc565b999c989b50969995989497949560800135949350505050565b60006020828403121561090b57600080fd5b81356107f581610666565b8082018082111561093757634e487b7160e01b600052601160045260246000fd5b92915050565b6000835161094f818460208801610792565b60609390931b6bffffffffffffffffffffffff19169190920190815260140192915050565b60008251610986818460208701610792565b9190910192915050565b6001600160a01b038481168252831660208201526060604082018190526000906109bc908301846107b6565b95945050505050565b81835281816020850137506000828201602090810191909152601f909101601f19169091010190565b6001600160a01b0387168152608060208201819052600090610a1390830187896109c5565b8281036040840152610a268186886109c5565b915050826060830152979650505050505050565b600060208284031215610a4c57600080fd5b81516107f581610666565b602081526000610a6b6020830184866109c5565b949350505050565b634e487b7160e01b600052602160045260246000fdfe4d6574615472616e73616374696f6e5374727563742875696e74323536206e6f6e63652c616464726573732066726f6d2c62797465732066756e6374696f6e5369676e617475726529a2646970667358221220c9bf742f4e9c097d982dffed25a71259bb329481eceaae1ac6130d78a8f0fc5564736f6c63430008140033454950373132446f6d61696e28737472696e67206e616d652c737472696e672076657273696f6e2c75696e7432353620636861696e49642c6164647265737320766572696679696e67436f6e747261637429",
  "devdoc": {
    "errors": {
      "ECDSAInvalidSignature()": [
        {
          "details": "The signature derives the `address(0)`."
        }
      ],
      "ECDSAInvalidSignatureLength(uint256)": [
        {
          "details": "The signature has an invalid length."
        }
      ],
      "ECDSAInvalidSignatureS(bytes32)": [
        {
          "details": "The signature has an S value that is in the upper half order."
        }
      ]
    },
    "events": {
      "DatasetSchema(address,string)": {
        "params": {
          "dataset": "- The ID of ProtectedData (ERC721).",
          "schema": "- The schema of the data containing in the ProtectedData created."
        }
      }
    },
    "kind": "dev",
    "methods": {
      "createDatasetWithSchema(address,string,string,bytes,bytes32)": {
        "params": {
          "_datasetChecksum": "-The checksum of the ProtectedData.",
          "_datasetMultiaddr": "- The multiaddress of the ProtectedData.",
          "_datasetName": "- The name of the ProtectedData (metadata).",
          "_datasetOwner": "- The owner of the ProtectedData.",
          "_datasetSchema": "- The schema of the data containing in the ProtectedData"
        },
        "returns": {
          "_0": "IDataset - The ProtcetedData instance created."
        }
      }
    },
    "version": 1
  },
  "userdoc": {
    "events": {
      "DatasetSchema(address,string)": {
        "notice": "Event emitted when new ProtectedData is created."
      }
    },
    "kind": "user",
    "methods": {
      "createDatasetWithSchema(address,string,string,bytes,bytes32)": {
        "notice": "Create a new protectedData."
      }
    },
    "version": 1
  },
  "storageLayout": {
    "storage": [
      {
        "astId": 420,
        "contract": "contracts/DataProtector.sol:DataProtector",
        "label": "nonces",
        "offset": 0,
        "slot": "0",
        "type": "t_mapping(t_address,t_uint256)"
      },
      {
        "astId": 438,
        "contract": "contracts/DataProtector.sol:DataProtector",
        "label": "domainSeparator",
        "offset": 0,
        "slot": "1",
        "type": "t_bytes32"
      }
    ],
    "types": {
      "t_address": {
        "encoding": "inplace",
        "label": "address",
        "numberOfBytes": "20"
      },
      "t_bytes32": {
        "encoding": "inplace",
        "label": "bytes32",
        "numberOfBytes": "32"
      },
      "t_mapping(t_address,t_uint256)": {
        "encoding": "mapping",
        "key": "t_address",
        "label": "mapping(address => uint256)",
        "numberOfBytes": "32",
        "value": "t_uint256"
      },
      "t_uint256": {
        "encoding": "inplace",
        "label": "uint256",
        "numberOfBytes": "32"
      }
    }
  }
}